:1000000009C021C057C01FC01EC01DC01CC01BC0DE
:1000100084C019C011241FBECFE9CDBF10E0A0E6F7
:10002000B0E0E0ECF3E002C005900D92A237B1071A
:10003000D9F710E0A2E7B0E001C01D92AA37B107DE
:10004000E1F76CD1BBC1DCCF26EB33E003C0F90193
:100050003197F1F70197D8F7089596B393FB992755
:1000600090F981E0982780917500880F892B809303
:1000700075008F7090E00895809174008F5F809379
:100080007400873010F0109274000895809174000D
:10009000811102C086E003C080917400815080937A
:1000A000740008958BB780628BBF08958BB78F7DE6
:1000B0008BBF08951895F894A89581B5886181BD86
:1000C00080E481BD78940895F894A89584B7877FDB
:1000D00084BF81B5886181BD11BC7894089581E6A3
:1000E00087B9A29A86EC86B9089537980895ECDF0F
:1000F0001092730003C080E190E0A6DFAEDF892B91
:10010000D1F7D0DF82E087BB85B7806285BF889555
:1001100085B78F7D85BFCADFCECF1F920F920FB6F6
:100120000F9211240F931F932F933F934F935F933D
:100130006F937F938F939F93AF93BF93CF93DF93EF
:10014000EF93FF9380917400811103C010927600A9
:1001500007C0809176008F3F19F08F5F8093760003
:100160007CDF20917300892B41F11092780010926E
:100170007700109279002F3F19F02F5F20937300C2
:1001800080917300863191F4809172008111B1C029
:100190007DDF809176008A3208F0ABC080917400D8
:1001A0008111A7C081E080937200A3C08A3209F058
:1001B000A0C085E1809373009CC02150243110F4CD
:1001C0005BDF95C080917400863069F48091770080
:1001D00090917800019690937800809377008A3F01
:1001E000954108F053DF349B7AC040916100409301
:1001F00060008091620080936100309163003093D1
:10020000620025B12093630090E0840F911D830F5D
:10021000911D820F911D95958795959587952091B4
:100220007400213019F421E730E002C02BE730E000
:100230008217930730F4209179002F5F2093790083
:1002400013C0109279008B39910528F023E027BB69
:10025000C09AC4980DC08C38910530F023E127BBBB
:1002600028B3216128BB04C022E127BBC49AC098EF
:1002700020917200222399F1893B910578F48A3A02
:10028000910570F48B39910568F48C38910560F410
:10029000C1E08C37910548F4C0E007C0C5E005C057
:1002A000C4E003C0C3E001C0C2E019BC88EE93E023
:1002B000CBDE10E0DD27C7FDD0950CE009C009BDFD
:1002C00084E690E0C1DE19BC80E991E0BDDE1F5FED
:1002D000812F90E08C179D0794F31092720080910B
:1002E00079008C3B18F0D2DE10927900369A109289
:1002F0007300FF91EF91DF91CF91BF91AF919F91EB
:100300008F917F916F915F914F913F912F911F91AD
:100310000F910F900FBE0F901F90189517BA88E09D
:1003200088BB85BB82E087BB83E28FBD81E083BF52
:10033000D6DE479A81E28FBD8FEF89BD83E090E0E2
:1003400083DE19BC81E090E07FDE85B7877E806127
:1003500085BFCDDEC0E0809174008C17E1F3809101
:1003600074008823A9F0E0917400AC2FB0E0AC5980
:10037000BF4FF0E0EC59FF4F9C918081981741F0FE
:10038000E0917400F0E0EC59FF4F808180628FBDF6
:10039000E0917400F0E0E559FF4F808189BDC09184
:1003A0007400809174008111D6CF81E090E04CDE22
:1003B000809172008111F9CF9ADECDCFF894FFCFF2
:1003C000A9A9A9A9000101030303010001030C2845
:0203D0007DFFAF
:00000001FF
