:1000000031C049C0A7C047C046C045C044C043C076
:10001000D4C041C0FFFF925F330ACB936AC196C43C
:10002000E5B7C3C8E8DDE8EBE9F0F1F8F6F9F5F972
:10003000FFF9FFFAFBFCFFFDFDFEFDFF00000000E5
:1000400000000101010202030404050608090B0D6A
:100050000F1215191D22272E363E49546272859AB9
:10006000B3D0F1FF11241FBECFE9CDBF10E0A0E651
:10007000B0E0EAEFF3E002C005900D92A636B107BA
:10008000D9F710E0A6E6B0E001C01D92AC36B1078A
:10009000E1F76BD1B0C1B4CF26EB33E003C0F90177
:1000A0003197F1F70197D8F7089596B393FB992705
:1000B00090F981E0982780916800880F892B8093C0
:1000C00068008F7090E008959091670080916400BF
:1000D000890F809367008091670018161CF081E0FB
:1000E0008093670080916700883218F087E28093E0
:1000F00067000895809164008195809364008091E9
:10010000670082301CF481E0809364008091670076
:10011000873218F08FEF8093640008958091670014
:10012000813019F41092670008958091670085501E
:10013000809367008091670018161CF081E080931F
:10014000670008958BB780628BBF08958BB78F7D52
:100150008BBF08951895F894A89581B5886181BDE5
:1001600080E481BD78940895F894A89584B7877F3A
:1001700084BF81B5886181BD11BC7894089581E602
:1001800087B9A29A86EC86B9089537980895ECDF6E
:100190001092660003C080E190E07EDF86DF892B4D
:1001A000D1F7D0DF82E087BB85B7806285BF8895B5
:1001B00085B78F7D85BFCADFCECF1F920F920FB656
:1001C0000F9211242F933F934F935F936F937F93DD
:1001D0008F939F93AF93BF93EF93FF9380916700AB
:1001E000811104C01092690010926A005EDF892BB1
:1001F000D9F010926900809166008F3F19F08F5FEF
:100200008093660080916600873121F48FEF8093A0
:100210006A005ADF80916600883119F485E1809385
:10022000660010926B0090C080916700882371F087
:10023000809169008F3F19F08F5F809369008091F2
:100240006A008F3F19F08F5F80936A00809166008B
:10025000982F9150943110F58091670081110AC058
:1002600080916500809367008FEF80936900109202
:100270006A000BC080916A00853148F48091670064
:10028000873228F487E28093670034DF5BC0809177
:100290006700809365001092670054C08111F5CF0C
:1002A00080916900803409F425DF349B43C040917C
:1002B0006100409360008091620080936100309102
:1002C00063003093620025B12093630090E0840FB7
:1002D000911D830F911D820F911D95958795959581
:1002E000879520916700213019F421E730E002C0A2
:1002F0002BE730E08217930730F480916B008F5F1B
:1003000080936B0013C010926B008B39910528F01D
:1003100083E087BBC09AC4980DC08C38910530F03B
:1003200083E187BB88B3816188BB04C082E187BB5E
:10033000C49AC09880916B008C3B18F0EFDE10924D
:100340006B00369A10926600FF91EF91BF91AF91CA
:100350009F918F917F916F915F914F913F912F91DD
:100360000F900FBE0F901F90189517BA88E088BBAA
:1003700085BB82E087BB83E28FBD89E083BFFFDE60
:10038000479A8FEF86BF89BD83E090E085DE19BC78
:1003900081E090E081DE85B7877E806185BFF7DEF2
:1003A000C0E020916700332727FD30958C2F90E027
:1003B00028173907B1F3E0916700FF27E7FDF095B3
:1003C000E45CFF4FE491E9BDE0916700FF27E7FDA2
:1003D000F095EC5EFF4FE491E6BFC091670081E0CD
:1003E00090E05ADE809167008111DBCF81E090E0E0
:0A03F00053DECDDED6CFF894FFCF28
:0603FA00A9A9A9A9010157
:00000001FF
