:100000001CC029C028C027C026C025C024C023C0CA
:1000100022C021C0768D9BA5AEA1A3A3A3A3A3A1BB
:10002000A1A1A1A1031464FFFFFF000000000000D4
:100030000000063887FFFCFDFEFF11241FBECFE93C
:10004000CDBF10E0A0E6B0E001C01D92A336B1071D
:10005000E1F789D048C1D4CF26EB33E003C0F901E2
:100060003197F1F70197D8F7089588EE93E0F4CF30
:10007000CF93C09162008C2F8F5F8F73809362004B
:100080006091600090E021D16FEF8C2F90E0CF91D4
:100090001CC1CF931092620008C08C2F90E00DD14C
:1000A0008F3F41F4CF5FC0936200C0916200C034C3
:1000B000A0F302C080936000CF910895809160000A
:1000C0008F5F873018F4809360000895109260006D
:1000D000089580916000873019F4109260000895AF
:1000E000882311F0815001C08AE080936000089558
:1000F000A29A81E687B986EC86B90895811104C079
:10010000611102C091EA9FBD89BD66BF0895FC01DF
:10011000E75EFF4FE491EFBDFC01EC5DFF4F6491A2
:10012000FC01E15DFF4F8491E9CF369A3699FECF0D
:1001300085B108951F93CF93DF93C82F14E1D1EABF
:100140000CC019BC16BF84E690E086DFDFBD19BC89
:1001500016BE80E991E080DFC150C111F2CFDF917E
:10016000CF911F910895A39A83E687B986EC86B94B
:100170003699FECF369A3699FECFC5B180E188BB5D
:10018000B99AB89A81EA8FBD81E083BF82DFCB3F05
:1001900010F094DF0AC0CF3B10F09BDF06C08091C7
:1001A0006100811102C01092600062DFBB9AC39AA5
:1001B0009FDF369AC0E0D0E01FEF81EAF82E95E08D
:1001C000E92E80916000E82FF0E0E15DFF4F04919F
:1001D0000E3F59F419BD16BF82E390E03DDFFFBC2E
:1001E00019BC16BE82E390E03BC00C3F81F404E0F2
:1001F00019BD16BE85E090E02FDF19BC16BF81E463
:1002000090E02ADF0150A1F780ED92E029C00D3F78
:10021000B1F4FFBC19BC16BE28DF87DF86DF982F3C
:10022000E4E1F0E080E02491291708F48F5F319633
:1002300020E0E931F207B9F77DDF17DF12C090E067
:1002400066DFDF3F19F0DF5FDD3340F00F3F31F451
:10025000E092600085E090E05ADF0ADF84EF91E0F1
:10026000FBDE349BAECF85B18D3620F5CF5FC83035
:1002700010F1C0916000C73098F4CC2311F0C15048
:1002800010C0FFBC19BC16BE85B7877E806185BFD4
:1002900085B7806285BF889585B78F7D85BF01C092
:1002A000C2E08C2F90E033DFC0936000E1DE8AEF84
:1002B00090E0D2DEC0E0369A84CFE199FECF1FBA3B
:1002C0008EBBE09A99278DB30895262FE199FECF32
:1002D0001CBA1FBA8EBB2DBB0FB6F894E29AE19AF6
:0A02E0000FBE01960895F894FFCFB9
:00000001FF
