:100000001DC02AC029C028C027C026C025C024C0C2
:1000100023C022C07C919EA6AEFFA1A3A3A3A3A34D
:10002000A1A1A1A1A1031464FFFFFF000000000033
:10003000000000063887FFFCFEFDFF0011241FBEF4
:10004000CFE9CDBF10E0A0E6B0E001C01D92A3361D
:10005000B107E1F78AD040C1D3CF26EB33E003C02C
:10006000F9013197F1F70197D8F7089588EE93E0F9
:10007000F4CFCF93C09162008C2F8F5F8F738093EA
:1000800062006091600090E019D16FEF8C2F90E0DA
:10009000CF9114C1CF931092620008C08C2F90E0D2
:1000A00005D18F3F41F4CF5FC0936200C0916200E1
:1000B000C034A0F302C080936000CF910895809176
:1000C00060008F5F873018F480936000089510926D
:1000D0006000089580916000873019F410926000EC
:1000E0000895882311F0815001C08AE08093600058
:1000F0000895A29A81E687B986EC86B908958111A0
:1001000004C0611102C091EA9FBD89BD66BF089518
:1001100090E0FC01E65EFF4FE491EFBDFC01EB5D7A
:10012000FF4F6491FC01E05DFF4F8491E8CF369A68
:100130003699FECF85B108951F93CF93DF93C82FD3
:1001400014E1D1EA0CC019BC16BF84E690E085DF4B
:10015000DFBD19BC16BE80E991E07FDFC150C1113F
:10016000F2CFDF91CF911F910895A39A83E687B9CB
:1001700086EC86B93699FECF369A3699FECFC5B150
:1001800080E188BBB99AB89A81EA8FBD81E083BFCC
:1001900081DFCB3F10F093DF0AC0CF3B10F09ADF36
:1001A00006C080916100811102C01092600061DF81
:1001B000BB9AC39A9EDF369AC0E010E00FEF81EA47
:1001C000F82E95E0E92E80916000E82FF0E0E05DE8
:1001D000FF4FD491DD3F59F409BD16BE82E390E094
:1001E0003CDFFFBC19BC16BE82E390E033C0DC3FAD
:1001F00081F4D4E009BD16BE85E090E02EDF19BC85
:1002000006BF81E490E029DFD150A1F780ED92E0B4
:1002100021C0DE3F91F4FFBC19BC16BE27DF87DF8B
:10022000982F80E001C08F5FE82FF0E0EC5EFF4F79
:10023000E491E917C0F380DF0EC06ADF1F5F1D3352
:1002400038F0DF3F29F4E092600085E061DF11DFE4
:1002500084EF91E002DF349BB6CF85B1843718F587
:10026000CF5FC83008F1C0916000C73098F4CC234C
:1002700011F0C15010C0FFBC19BC16BE85B7877EF7
:10028000806185BF85B7806285BF889585B78F7D82
:1002900085BF01C0C2E08C2F3BDFC0936000E9DE68
:1002A0008AEF90E0DADEC0E0369A8DCFE199FECF9A
:1002B0001FBA8EBBE09A99278DB30895262FE19936
:1002C000FECF1CBA1FBA8EBB2DBB0FB6F894E29AB4
:0C02D000E19A0FBE01960895F894FFCF4C
:00000001FF
