:1000000025C032C031C030C02FC02EC02DC02CC082
:100010002BC02AC0768D9BA5AEA3A3A3A1A1A1A1AD
:10002000A1A3A3A3A3A3A1A1A1A114C8FF00FDFEA6
:10003000FF031464FFFFFF00FDFEFF00004FFFFD04
:10004000FEFF000000063887FFFDFEFF11241FBEE3
:10005000CFE9CDBF10E0A0E6B0E001C01D92AD3603
:10006000B107E1F7EBD0C5C1CBCF26EB33E003C03E
:10007000F9013197F1F70197D8F7089588EE93E0E9
:10008000F4CFCF93C09164008C2F8E5F8F718093DB
:10009000640090916000792F7295707F60E03091DC
:1000A000620020E0622B732B90916100692B90E03D
:1000B0008FD16FEF7FEF8C2F90E0CF9189C1CF93DD
:1000C000DF93109264000DC08C2F90E079D1D82F6F
:1000D0008C2F90E0019674D1DF3F41F4CE5FC09346
:1000E0006400C0916400C03278F30AC0D09361000C
:1000F000982F92959F70909360008170809362001A
:10010000DF91CF910895809161008F5F80936100AE
:1001100090916700891710F0109261000895809106
:10012000610090916700891303C0109261000895E7
:10013000811102C080916C0081508093610008950C
:10014000B49904C081E08093630008951092630025
:10015000089580916200811112C087E0809367004A
:1001600082E490E090936B0080936A0081E390E0DA
:10017000909369008093680080E290E011C084E071
:10018000809367008BE390E090936B0080936A000C
:100190008AE290E0909369008093680089E190E0A2
:1001A0009093660080936500809167008D5F8093D7
:1001B0006C000895A29A81E687B986EC86B9089505
:1001C000811104C0611102C091EA9FBD89BD66BF63
:1001D0000895E0916500F0916600E80FF91FE49141
:1001E000EFBDE0916800F0916900E80FF91F64919C
:1001F000E0916A00F0916B00E80FF91F8491E0CF65
:10020000369A3699FECF85B108951F93CF93DF9329
:10021000C82F14E1D1EA0CC019BC16BF84E690E0E7
:1002200024DFDFBD19BC16BE80E991E01EDFC1509E
:10023000C111F2CFDF91CF911F910895A39A83E668
:1002400087B986EC86B93699FECF369A3699FECFB5
:10025000C5B180E188BBB99AB89A81EA8FBD81E0C7
:1002600083BF6EDF2CDF75DFCB3F48F04CDF809122
:1002700060008F3090F48F5F809360000EC0CF3BA2
:1002800020F04DDF1092600008C010926000809155
:100290006300811102C010926100F3DEBB9AC39A21
:1002A00089DF369AC0E0D0E0EE24E39411EAFF241F
:1002B000FA9480916100E0916A00F0916B00E80F80
:1002C000F11D0491909160009F3079F4D7DE109277
:1002D000600010926100809162008E258093620020
:1002E000D0DE37DF81E091DF3DC00E3F61F4F9BC25
:1002F000F6BE82E390E0B9DE1FBD19BC16BE82E3F4
:1003000090E0B3DE2FC00D3FB1F41FBD19BC16BE87
:10031000B5DE76DF75DF982FE4E1F0E080E0249130
:10032000291708F48F5F319620E0E931F207B9F719
:100330006CDFA4DE17C090E04CDFDF3F19F0DF5F19
:10034000DD3350F00F3F41F480916700825080937D
:10035000610090E03EDF95DE84EF91E086DE109252
:1003600060008FDE349BA5CF85B18D3630F5CF5F31
:10037000C83020F1C091610080916700C81798F4DF
:10038000CC2311F0C15010C01FBD19BC16BE85B7DB
:10039000877E806185BF85B7806285BF889585B778
:1003A0008F7D85BF01C0C2E08C2F90E012DFC0932B
:1003B000610067DE8AEF90E058DEC0E0369A79CFC0
:1003C000E199FECF1FBA8EBBE09A99278DB30895AD
:1003D00002D0272F01C0262FE199FECF1CBA1FBAE9
:1003E0008EBB2DBB0FB6F894E29AE19A0FBE019630
:0603F0000895F894FFCF10
:00000001FF
