:1000000009C00EC00DC00CC00BC00AC009C008C09A
:1000100007C006C011241FBECFE9CDBF2AD06FC0D4
:10002000EFCF26EB33E003C0F9013197F1F70197E9
:10003000D8F7089581E687B9A29A86EC86B9089523
:1000400037980895369A3699FECF85B1089582E0A3
:1000500089BD85E090E0E5DF19BC88EC90E0E1CF58
:100060008AE089BD84E690E0DCDF19BC88EC90E092
:10007000D8CF82E087BB81E28FBD81E083BFDADF2A
:10008000479A8FEF89BD85E090E0CBDF19BCDADFBE
:1000900019BC18E0C0E0D0E0D5DFC80FD11D82E365
:1000A00090E0BFDF1150C1F783E0D695C7958A95E0
:1000B000E1F703C0C456D109D3DFC436D105D0F768
:1000C00088EE93E0AEDFCA30D10520F4C0DF02C075
:1000D0002A97C6DFCA30D105D8F788EE93E0A1DFB2
:1000E000209721F4B4DF02C02197BADF2097E1F70F
:1000F00088EE93E096DF88EB9BE093DFC9CFF8941E
:02010000FFCF2F
:00000001FF
