:100000002CC054C019C152C051C055C04FC04EC0C1
:100010004DC04CC04BC04AC0CDC048C047C0000016
:1000200000000000000000000000000023456C9864
:10003000C9FF040714233764A0FFFFFFFFFFFFFF82
:10004000FFFFFFFFFF000000000000000000234052
:100050005F7AB4FFFFFFFFFFFF0011241FBECFED4B
:10006000CDBF20E0A0E6B0E001C01D92A938B207E4
:10007000E1F7E2E6F0E085E5808781E083831482A2
:10008000128286831182AEE6B0E08EEF15968C93D5
:1000900015978DEF17968C938BE0828788E5838781
:1000A000612C712C88248A9486D010C1A9CF1BBCE6
:1000B00019BC18BC0895189525B7277E25BF29B708
:1000C000226029BF21E022BF019728F020E1889516
:1000D0002150E9F7F9CF089588EE93E0EDCF8CE257
:1000E00087B986EC86B9369A3699FECF8FEF809322
:1000F00060000895369A3699FECF95B180916000E0
:1001000089270895811101C0D2CF815090E0FC0170
:10011000E25EFF4FE491EBBDFC01EE5CFF4FE4912A
:10012000E9BDFC01EA5BFF4F849188BD08950F9300
:100130001F93CF93C82F8B01CC2359F085E0E2DFCA
:10014000C801BADFB4DFC801B7DFC801B5DFC150ED
:10015000F3CFCF911F910F910895CF93DF93D82FB5
:1001600064E170E08AE0E3DF84EF91E0A5DF8D2FAA
:1001700064E6A0D0CAE06C2F9DD0892F68EC70E0B7
:10018000D6DFAADF8D2F6C2F95D0D92F93D0892F52
:1001900068EC70E0CCDFA0DF68EC70E08D2FC7DF8B
:1001A0009BDF64E170E08AE0C2DF84EF91E0DF91E1
:1001B000CF9182CF18958FEF881210C083EA87B94C
:1001C00086EC86B93699FECF369A3699FECF85B140
:1001D000833D18F086E0882E01C0812C8FE384BB1C
:1001E000B99AB89ABC9A81E08ABD83BF9AB59062E9
:1001F0009ABD9AB590689ABD9FEF9DBD80BF80E67D
:100200008CBD97B328B3892F90E0809590958B7F14
:10021000822B88BBAB9A8BB780628BBF8AB7856015
:100220008ABF85B7806285BF789459DF8CE291E000
:1002300043DF60DF92DFFACF1124882009F01895A0
:10024000F89416B834DFB998B898BC9830E021E03B
:1002500094E086B38870222351F0811127C086E094
:10026000881510F021E0F5CF20E099E0F2CF33239C
:1002700019F0882321F01AC031E0811130E085B7F0
:10028000877E806185BF892F887011F440E401C0AA
:1002900040E6892F8770842B81BD85B7846885BF30
:1002A0008B7F85BF78948895F894D3CF8FED8DBFE1
:1002B0001FBE81DF991B79E004C0991F961708F0D3
:1002C000961B881F7A95C9F780950895F894FFCFFB
:00000001FF
