:100000004EC076C075C074C073C080C071C070C06F
:100010006FC06EC06DC06CC06BC06AC069C00303A6
:10002000040506080A0C0F13171C21282F373F4917
:10003000545F6C7A8999ABBED2E8FFFFFFFFFFFFE8
:10004000FFFFFFFFFFFFFFFFFFFFFFFFFFFFFFFFC0
:10005000FFFFFFFFFFFFFFFFFFFFFFFFFF000000AD
:100060000000000000000000000000000000000090
:1000700000000000000000000000000205080B0E58
:1000800012161A1E22272C31363B41474D545B6213
:100090006971798189929BA4AEB8C2CDD8FF112431
:1000A0001FBECFE5D1E0DEBFCDBF20E0A0E6B0E0CF
:1000B00001C01D92A338B207E1F7E1E6F0E085E563
:1000C000808781E083831482128286831182ACE66A
:1000D000B0E08EEF15968C9315978DEF17968C9355
:1000E00085E081878FE48287612C712C72D0AAC051
:1000F00087CF815090E0FC01E25EFF4FE491E9BDC3
:10010000FC01E25AFF4F849188BD0895189525B7E8
:10011000277E25BF29B7226029BF21E022BF019792
:1001200028F020E188952150E9F7F9CF089588EE6D
:1001300093E0EDCF81EA87B986EC86B9369A0895C7
:10014000369A3699FECF85B108950F931F93CF93BA
:10015000C82F8B01CC2361F081E1CBDFC801D7DF51
:1001600019BC18BCC801D3DFC801D1DFC150F2CF20
:10017000CF911F910F910895CF93DF93D82F64E112
:1001800070E08AE0E2DF84EF91E0C1DF8D2F64E66A
:100190004DD0CAE06C2F4AD0892F68EC70E0D5DFD3
:1001A000C6DF8D2F6C2F42D0D92F40D0892F68EC1D
:1001B00070E0CBDFBCDF68EC70E08D2FC6DFB7DF0F
:1001C00064E170E08AE0C1DF84EF91E0DF91CF91DC
:1001D0009ECF83EA87B986EC86B93699FECF369AE8
:1001E0003699FECF85B18FE384BBBB9AC39AB99A87
:1001F000B89A81E08ABD83BF8AB580628ABD8AB51C
:1002000080688ABD97B328B3892F90E08095909538
:100210008B7F822B88BB85B7806285BF78948ADF0D
:100220008CE291E074DF8CDFA7DFFACF991B79E0D5
:1002300004C0991F961708F0961B881F7A95C9F776
:0802400080950895F894FFCFAA
:00000001FF
