:1000000012C02AC029C028C027C026C025C024C0CD
:1000100023C022C003146EE6FFFFFFFF00000000B4
:100020000007385A89FF11241FBECFE9CDBF20E059
:10003000A0E6B0E001C01D92A038B207E1F7E1E60A
:10004000F0E0128281E086839EEF909370008783B8
:10005000612C712C71D0A5C0D3CF26EB33E0019772
:1000600020F0F9013197F1F7FACF089588EE93E087
:10007000F4CF81E687B986EC86B9369A0895369A28
:100080003699FECF85B10895CF92DF92EF92FF921D
:100090000F931F93CF93C82F8B0185E1E82E80E04B
:1000A000F82E9EE1C92E90E0D92ECC2381F0F701E5
:1000B000849186BFF601849189BDC801CEDF16BE4A
:1000C00019BCC801CADFC801C8DFC150EECFCF914B
:1000D0001F910F91FF90EF90DF90CF900895CF93F5
:1000E000DF93D82F64E170E08AE0CEDF84EF91E007
:1000F000B4DF8D2F64E649D0CAE06C2F46D0892F3B
:1001000068EC70E0C1DFB2DF8D2F6C2F3ED0D92FAD
:100110003CD0892F68EC70E0B7DFA8DF68EC70E0B6
:100120008D2FB2DFA3DF64E170E08AE0ADDF84EF02
:1001300091E0DF91CF9191CF83E687B986EC86B9C4
:100140003699FECF369A3699FECF85B18FE384BBC0
:10015000BB9AC39AB99AB89A81E08FBD83BF8FB515
:1001600080628FBD8FB580688FBD97B328B3892F0C
:1001700090E0809590958B7F822B88BB7ADF8CE214
:1001800091E06BDF7CDFABDFFACF991B79E004C035
:10019000991F961708F0961B881F7A95C9F78095C6
:0601A0000895F894FFCF62
:00000001FF
