:100000002CC051C0FBC04FC04EC052C04CC04BC0F2
:100010004AC049C048C047C0BFC045C044C0000036
:1000200000000000000000000000000023456C9864
:10003000C9FF040714233764A0FFFFFFFFFFFFFF82
:10004000FFFFFFFFFF000000000000000000234052
:100050005F7AB4FFFFFFFFFFFF0011241FBECFED4B
:10006000CDBF20E0A0E6B0E001C01D92A738B207E6
:10007000E1F7E2E6F0E085E5808781E083831482A2
:100080001282868311828BE0818788E58287612CCA
:10009000EDE6F0E08DEF87838EEF8583712C882469
:1000A0008A947BD0F5C0ACCF1BBC19BC18BC08959A
:1000B000189525B7277E25BF29B7226029BF21E0E3
:1000C00022BF019728F020E188952150E9F7F9CF68
:1000D000089588EE93E0EDCF369A3699FECF95B12C
:1000E0008091600089270895811101C0DDCF815082
:1000F00090E0FC01E25EFF4FE491EBBDFC01EE5CA1
:10010000FF4FE491E9BDFC01EA5BFF4F849188BD9C
:1001100008950F931F93CF93C82F8B01CC2359F0D1
:1001200085E0E2DFC801C5DFBFDFC801C2DFC8016B
:10013000C0DFC150F3CFCF911F910F910895CF939E
:10014000DF93D82F64E170E08AE0E3DF84EF91E091
:10015000B0DF8D2F64E690D0CAE06C2F8DD0892F50
:1001600068EC70E0D6DFB5DF8D2F6C2F85D0D92FEE
:1001700083D0892F68EC70E0CCDFABDF68EC70E0F7
:100180008D2FC7DFA6DF64E170E08AE0C2DF84EF75
:1001900091E0DF91CF918DCF1895109287008FEF6E
:1001A000881203C0612C83E0882E8FEF8DBD80E61E
:1001B0008CBDAB9A8BB780628BBF8AB785608ABFD4
:1001C0008FE384BB83E187BB88EE88BB81E083BF7C
:1001D00091EA9ABD80BF85B7806285BF78948CE232
:1001E00087B986EC86B93699FECF8FEF8093600091
:1001F0008CE291E05EDF70DFA2DFFACF112488206D
:1002000009F01895F89416B84FDF87B38C7E87BB3A
:1002100030E021E094E086B38870222351F0811110
:1002200027C087E0881510F021E0F5CF20E099E0A5
:10023000F2CF332319F0882321F01AC031E0811165
:1002400030E085B7877E806185BF892F887011F483
:1002500040E401C040E6892F8770842B81BD85B7BB
:10026000846885BF8B7F85BF78948895F894D3CFB9
:100270008FED8DBF1FBE91DF991B79E004C0991FE0
:10028000961708F0961B881F7A95C9F780950895F0
:04029000F894FFCF10
:00000001FF
