:100000002CC051C003C14FC04EC052C04CC04BC0E9
:100010004AC049C048C047C0CAC045C044C000002B
:1000200000000000000000000000000023456C9864
:10003000C9FF040714233764A0FFFFFFFFFFFFFF82
:10004000FFFFFFFFFF000000000000000000234052
:100050005F7AB4FFFFFFFFFFFF0011241FBECFE553
:10006000D2E0DEBFCDBF20E0A0E6B0E001C01D922F
:10007000A238B207E1F7E2E6F0E085E5808781E0AB
:100080008383128211828BE0828788E58387612CCB
:10009000EEE6F0E08DEF87838EEF8583712C882468
:1000A0008A9486D0FFC0ACCF1BBC19BC18BC089585
:1000B000189525B7277E25BF29B7226029BF21E0E3
:1000C00022BF019728F020E188952150E9F7F9CF68
:1000D000089588EE93E0EDCF8CE287B986EC86B97F
:1000E000369A3699FECF8FEF809360000895369A46
:1000F0003699FECF95B180916000892708958111CE
:1001000001C0D2CF815090E0FC01E25EFF4FE4914C
:10011000EBBDFC01EE5CFF4FE491E9BDFC01EA5B45
:10012000FF4F849188BD08950F931F93CF93C82FDD
:100130008B01CC2359F085E0E2DFC801BADFB4DFE0
:10014000C801B7DFC801B5DFC150F3CFCF911F9110
:100150000F910895CF93DF93D82F64E170E08AE088
:10016000E3DF84EF91E0A5DF8D2F64E68FD0CAE056
:100170006C2F8CD0892F68EC70E0D6DFAADF8D2F32
:100180006C2F84D0D92F82D0892F68EC70E0CCDF1F
:10019000A0DF68EC70E08D2FC7DF9BDF64E170E0CB
:1001A0008AE0C2DF84EF91E0DF91CF9182CF189592
:1001B0008FE384BBB99AB89ABC9A81E08ABD83BFA9
:1001C0009AB590629ABD9AB590689ABD9FEF9DBD11
:1001D00080BF80E68CBD97B328B3892F90E08095CF
:1001E00090958B7F822B88BBAB9A8BB780628BBF3D
:1001F0008AB785608ABF85B7806285BF78946CDFD7
:100200008CE291E056DF73DFA5DFFACF112488205E
:1002100009F01895F89416B847DFB998B898BC98C3
:1002200030E021E094E086B38870222351F0811100
:1002300027C087E0881510F021E0F5CF20E099E095
:10024000F2CF332319F0882321F01AC031E0811155
:1002500030E085B7877E806185BF892F887011F473
:1002600040E401C040E6892F8770842B81BD85B7AB
:10027000846885BF8B7F85BF78948895F894D3CFA9
:100280008FE58DBF82E08EBF1FBE92DF991B79E0A4
:1002900004C0991F961708F0961B881F7A95C9F716
:0802A00080950895F894FFCF4A
:00000001FF
