:100000008CC0B1C04FC3AFC0AEC0B2C0ACC0ABC0FB
:10001000AAC0A9C0A8C0A7C05BC1A5C0A4C0814593
:1000200086468B479048944997609B619E62A16386
:10003000A464A765AA66AC67AE68B069B280B481F3
:10004000B682B883BA84BB84BD84FF21000000005F
:100050000000000000000000000023456C98C9FF6C
:10006000040714233764A0FFFFFFFFFFFFFFFFFF1C
:10007000FFFFFF00000000000000000023405F7A47
:10008000B4FFFFFFFFFFFF001400081400080E1468
:100090000004080E14000305080E140004080A0EDC
:1000A0001114000305080A0E1014000305080A0EB7
:1000B0001012140008000E00080E0004080E0003C1
:1000C00005080E0004080E1100080E1100F3F404D8
:1000D000080E10121400080A0C0E0F10121400085B
:1000E0000EED14000203040500041400040E1400B5
:1000F000040810140004080F1114000305080A0E68
:100100000004080A0E00EEEDECEB140E08040004E7
:10011000080E00EBECEDEEF3F41411241FBECFED4E
:10012000CDBF20E0A0E6B0E001C01D92A738B20725
:10013000E1F7E2E6F0E085E5808781E083831482E1
:100140001282868311828BE0818788E58287612C09
:10015000EDE6F0E08DEF87838EEF8583712C8824A8
:100160008A94B7D0D5C24CCF1BBC19BC18BC08951B
:10017000189525B7277E25BF29B7226029BF21E022
:1001800022BF019728F020E188952150E9F7F9CFA7
:10019000089588EE93E0EDCF369A3699FECF95B16B
:1001A0008091600089270895CF93C72D81E0870D46
:1001B0008F73782E662D90E09DD26FEF8C2F90E09C
:1001C000CF9198C2FF920F931F93CF93DF93F82E96
:1001D0000CE610E0C5E7D0E0F11005C0CE0182D2F8
:1001E000F801808304C0F8016081CE0183D221969A
:1001F00001501109CF37D10579F7DF91CF911F91C8
:100200000F91FF900895D0DF81E0DCCF811101C014
:10021000ABCF815090E0FC01E45BFF4FE491EBBD7C
:10022000FC01E05AFF4FE491E9BDFC01EC58FF4F9F
:10023000849188BD08950F931F93CF93C82F8B018E
:10024000CC2359F085E0E2DFC80193DF8DDFC801E0
:1002500090DFC8018EDFC150F3CFCF911F910F9176
:100260000895EF92FF920F931F93CF93C8E0E82E6B
:10027000F12C062F10E084E1C9DFC7017ADF74DFBB
:10028000C80177DFC150B9F7CF911F910F91FF904F
:10029000EF9008951F93CF93DF938FEA87B986EC91
:1002A00086B91092600010E1C0E0D0E085E090E0F7
:1002B00060DF72DFC80FD11D1150C1F7CE0124E0FD
:1002C000969587952A95E1F7DF91CF911F91089533
:1002D0001895109287008FEF8DBD80E68CBDAA9A8D
:1002E0008BB780628BBF8AB785608ABF8FE384BB80
:1002F00083E187BB88EE88BB81E083BF91EA9ABD2A
:1003000080BF85B7806285BF789487E790E0EAD1A7
:10031000853511F078DF11C0712C872D90E0E2D186
:10032000682E8F3F19F080E04DDF07C0872D91E0E8
:10033000970D792E803488F3F6CF80916B00C091B1
:1003400065001091660030916300332319F010E0CE
:10035000C0E08AE18F5F20E040E050E0A8E8B0E034
:10036000882379F0BD016F5F7F4FFB013197E491E6
:10037000EE2319F0262F2A1BF6CF8150AD01DB01A9
:10038000EFCF022F6C2F70E0A22FB0E0E02FF0E053
:10039000112321F0CD018E1B9F0B04C0CF010197CB
:1003A000860F971F3197E40FF51FF4908A589F4FDF
:1003B000FC01F082015051F72C0F20936100CC23F7
:1003C00069F0112321F0822F90E0019702C080E0B4
:1003D00090E0FC01EA58FF4F41E0408387E0820F44
:1003E000982F9150E92FE21BF0E0ED5EFE4FE49173
:1003F000A92FB0E0AA58BF4FEC939213F2CFE82F89
:10040000F0E0EB58FF4F91E050917600408154139B
:1004100090E0891B80938600962D953FD0F5582D4E
:100420005330A8F4809188008F3F29F48091870091
:100430008093880005C09F5F692E921708F0612C99
:10044000809188008F5F8F718093880022C04091D7
:100450008700409388005730B0F4409168004423EF
:1004600011F0332331F09F5F692E921790F0612CC9
:1004700010C06216E1F3662019F09150692E09C090
:100480008150682E06C03111F2CF8091640088231C
:1004900071F3812C89DE8CE287B986EC86B93699B6
:1004A000FECF8FEF80936000C62DC53FE0F58091B1
:1004B0008800803138F4E62DF0E0EA58FF4FD08113
:1004C000CD2F31C066DE8091870080938800C3E61F
:1004D000D0E000E010E0FF24F39481E0800F0F5F94
:1004E0001F4F98819F3F29F4219608301105A9F7E5
:1004F000E2CF6DE570E09FDEF801E359FF4F6080C9
:1005000088818F2588837FDE6FE070E080E293DE54
:1005100088818F25888377DE612C3BDE80916300A4
:10052000882311F3C8CF10E0F12C8CE2D82E96EC82
:10053000C92EEE24EA94CE3E19F463E481E204C0AD
:10054000CD3E21F468E284E18CDE74C0CC3E11F42F
:1005500069E203C0CB3E19F462E581E0F5CFC33F09
:1005600041F484E153DE8AE090E003DE88E04EDE71
:100570003BC0C43F51F584E690E0FBDD0DDE90E02A
:10058000292F30E0F901E25EFF4FE491E81710F403
:100590009E5FF6CFF901E15EFF4F04916DE770E0D9
:1005A000802F82958695877046DE8EEE92E0E1DDA3
:1005B00065E070E081E03FDE85E694E0DADD6DE73E
:1005C00070E0802F8F7137DE0EC0CE3F79F4612C42
:1005D00000E000936B0017DE6AEF70E081E02BDE35
:1005E0000F5F0A31B1F7D5DDD4DD24C0CD3F71F501
:1005F000612C8FEF80936C0006DE85E007DEC9DD9D
:10060000C8DD84E103DE46DE80936C00FCDDC1DDE5
:10061000C0DDF9CF3699FECFE0926000F39490915F
:100620006C008917C8F484EF91E0A3DD8091870006
:1006300080938800B1DD803998F51F5F183008F489
:100640007ACFD53190F010E0DAE0CAE08D2FDEDD10
:1006500021DED7B8C6B8DECFDB3028F3F4E1FF15D2
:1006600010F7E0928700DAE0DECFD23030F08D2F45
:1006700086958695D695D80F12C076DD85B7877E8C
:10068000806185BFF89485B7846885BF8B7F85BFFF
:1006900085B7806285BF889585B78F7D85BFCD2F53
:1006A00010E049CF1124882009F01895F89416B865
:1006B0005BDD87B38C7E87BB94E4B2990FC08394D3
:1006C00085B7877E806185BF91BD85B7846885BF0A
:1006D0008B7F85BF78948895F894EFCF8FED8DBF91
:1006E0001FBEF7DDE199FECF1FBA8EBBE09A9927B6
:1006F0008DB30895262FE199FECF1CBA1FBA8EBB89
:100700002DBB0FB6F894E29AE19A0FBE01960895B8
:04071000F894FFCF8B
:00000001FF
