:1000000092C0BCC074C381C17EC1B8C0B7C0B6C005
:10001000B5C0B4C0B3C0B2C07CC1B0C0AFC0814530
:1000200086468B479048944997609B619E62A16386
:10003000A464A765AA66AC67AE68B069B280B481F3
:10004000B682B883BA84BB84BD84FF21040714231D
:100050003764A0FFFFFFFFFFFFFFFFFFFFFFFF0071
:100060000000000000000000000000000000234528
:100070006C98C9FF040714233764A0FFFFFFFFFF3C
:10008000FFFFFFFFFFFFFF00000000000000000077
:1000900023405F7AB4FFFFFFFFFFFF001400081446
:1000A00000080E140004080E14000305080E1400C6
:1000B0000305080A0E14000305080A0E10140003B5
:1000C00005080A0E1012140008000E00080E0004A5
:1000D000080E000305080E000305080A0E000408B8
:1000E0000E101400F3F404080E10121400080A0C89
:1000F0000E0F10121400080EEE1400020304050087
:10010000041400040E1400040810140004080F1155
:100110001400EEEDECEB140E08040004080E00EBE6
:10012000ECEDEEF3F41411241FBECFE5D1E0DEBFF9
:10013000CDBF20E0A0E6B0E001C01D92A938B20713
:10014000E1F7E2E6F0E085E5808781E083831482D1
:10015000128286831182AEE6B0E08EEF15968C9304
:1001600015978DEF17968C938BE0828788E58387B0
:10017000612C712C88248A94CDD015C341CF989AD4
:100180001EBC1BBC19BC18BC089525B7277E25BF13
:1001900021E02FBD019728F020E288952150E9F752
:1001A000F9CF089588EE93E0F0CF8CE287B986EC22
:1001B00086B9369A3699FECF8FEF80936000089506
:1001C000369A3699FECF95B18091600089270895BF
:1001D000CF93C72D81E0870D8F73782E662D90E029
:1001E000D4D26FEF8C2F90E0CF91CFC2FF920F93BC
:1001F0001F93CF93DF93F82E0DE610E0C4E7D0E015
:1002000081E0F81205C0F8016081CE01BED204C0C1
:10021000CE01B3D2F8018083015011092196CF3766
:10022000D10571F7DF91CF911F910F91FF90089544
:10023000CFDF81E0DBCF811101C0A1CF815090E001
:10024000FC01E45BFF4FE491EEBD9898FC01E05A9D
:10025000FF4FE491EBBDFC01EC58FF4FE491E9BD89
:10026000FC01E857FF4F849188BD08950F931F93B9
:10027000CF93C82F8B01CC2359F085E0DCDFC80178
:1002800084DF7DDFC80181DFC8017FDFC150F3CF8C
:10029000CF911F910F910895EF92FF920F931F93AB
:1002A000CF93C8E0E82EF12C062F10E084E1C3DFE5
:1002B000C7016BDF64DFC80168DFC150B9F7CF91B8
:1002C0001F910F91FF90EF9008951F93CF93DF93AD
:1002D0008FEA87B986EC86B91092600010E1C0E021
:1002E000D0E085E090E051DF6BDFC80FD11D1150E9
:1002F000C1F7CE0124E0969587952A95E1F7DF9125
:10030000CF911F910895C3981895989901C0C39AE9
:10031000189518958FE384BBB99AB89ABC9ABB9A82
:1003200081E08ABD83BF9AB590629ABD9AB5906804
:100330009ABD9FEF9DBD80BF80E68CBD82E080BFEF
:1003400080B7806480BF89B7846489BF97B328B3BE
:10035000892F90E0809590958B7F822B88BBAA9AFD
:10036000C298AA9A8BB780628BBF8AB785608ABF12
:1003700085B7806285BF789487E790E0FED18535A8
:1003800011F056DF11C0712C872D90E0F6D1682E48
:100390008F3F19F080E02ADF07C0872D91E0970D8D
:1003A000792E803488F3F6CF80916C00109165002F
:1003B00000916600C0916300CC2319F000E010E0CA
:1003C00088E18F5F90E040E050E06CE970E08823C6
:1003D00079F09B012F5F3F4FF9013197E491EE23B4
:1003E00019F0922F961BF6CF8150AB01B901EFCFD8
:1003F000892F612F70E0A92FB0E0E82FF0E00023F3
:1004000021F09D012E1B3F0B05C09F01215031099A
:10041000260F371F3197E40FF51FF49028583F4FF0
:10042000F901F082815049F7910F909361001123F7
:1004300071F0002329F0292F30E02150310902C04A
:1004400020E030E0F901E858FF4F81E0808387E049
:10045000890F282F2150E22FE91BF0E0E15EFE4FCB
:10046000E491A22FB0E0A858BF4FEC932913F2CF2C
:10047000E82FF0E0E958FF4F21E04091780030810B
:10048000431320E0821B282F80938800862D853F10
:1004900078F5382D333060F48F5F682E891708F0B7
:1004A000612C809189008F5F8F718093890020C0BB
:1004B000109289003630B0F430916800332311F087
:1004C000CC2331F08F5F682E891790F0612C10C01B
:1004D0006916E1F3662019F08150682E09C0215099
:1004E000622E06C0C111F2CF80916400882371F39F
:1004F000812C6EDE5ADEC62DC53F28F4D0E0C858E8
:10050000DF4FC881DC2F10E000E0EE24E3948091FF
:100510008900803190F146DE10928900C3E6D0E078
:10052000C12CD12C81E08C0DFFEFCF1ADF0A98810E
:100530009F3F31F4219689E0C816D10499F718C07D
:100540006DE570E093DEF601E259FF4F608088812F
:100550008E2588836DDE6FE070E080E287DE888123
:100560008E25888365DE1EDE80916300882311F36B
:10057000612CC0917800DC2F8EC0CE3E19F463E46C
:1005800081E204C0CD3E21F468E284E185DE83C0CF
:10059000CC3E11F469E203C0CB3E19F462E581E080
:1005A000F5CFC33F41F484E146DE8AE090E0EDDD23
:1005B00088E041DE3DC0C43F59F584E690E0E5DDCA
:1005C000F4DDFEDD90E0292F30E0F901E25EFF4F1F
:1005D000E491E81710F49E5FF6CFF901E15EFF4F5A
:1005E000F4906DE770E08F2D8295869587703EDEE2
:1005F0008EEE92E0CADD65E070E081E037DE85E6F0
:1006000094E0C3DD6DE770E08F2D8F712FDE0FC09A
:10061000CE3F81F4612CF12CF0926C0009DE6AEF80
:1006200070E081E023DEF39498E1F912F5CFBADDB2
:10063000B9DD31C0CD3F91F4612C8FEF80936D0017
:10064000F7DD85E0F8DDAEDDADDD84E1F4DD3DDE36
:1006500080936D00EDDDA6DDA5DDF9CF8D2FEBDDFF
:1006600034DE20916D00821738F00F5F093078F08A
:10067000D33068F0D1500AC090E030E02250310908
:10068000821793071CF4DC1708F4DF5F00E08DDDB0
:1006900084EF91E07ADD1092890092DD803990F448
:1006A0001F5F183008F433CFD53120F010E0DAE0C6
:1006B000CAE02DCFD23040F08D2F86958695D69505
:1006C000D80FCD2F10E023CF5ADD85B7877E80610C
:1006D00085BFF89485B7846885BF8B7F85BF85B754
:1006E000806285BF889585B78F7D85BFEACF11244D
:1006F000882009F01895F89416B841DDB998B89893
:10070000BC98BB9830E021E094E060E27EE486B3E0
:100710008470222369F081112AC086E0881510F0C8
:1007200021E0F5CFCB010197F1F720E099E0EFCF81
:10073000332319F0882321F01AC031E0811130E011
:1007400085B7877E806185BF892F887011F440E46A
:1007500001C040E6892F8770842B81BD85B78468EE
:1007600085BF8B7F85BF78948895F894D0CF8FE52F
:100770008DBF81E08EBF1FBECDDDE199FECF1FBAD8
:100780008EBBE09A99278DB30895262FE199FECF6D
:100790001CBA1FBA8EBB2DBB0FB6F894E29AE19A31
:0A07A0000FBE01960895F894FFCFF4
:00000001FF
