:1000000088C0B0C054C3AEC0ADC0B1C0ABC0AAC000
:10001000A9C0A8C0A7C0A6C066C1A4C0A3C081458E
:1000200086468B479048944997609B619E62A16386
:10003000A464A765AA66AC67AE68B069B280B481F3
:10004000B682B883BA84BB84BD84FF21000000005F
:100050000000000000000000000023456C98C9FF6C
:10006000040714233764A0FFFFFFFFFFFFFFFFFF1C
:10007000FFFFFF00000000000000000023405F7A47
:10008000B4FFFFFFFFFFFF001400081400080E1468
:100090000004080E14000305080E14000305080AE6
:1000A0000E14000305080A0E1014000305080A0EBA
:1000B0001012140008000E00080E0004080E0003C1
:1000C00005080E000305080A0E0004080E101400AF
:1000D000F3F404080E10121400080A0C0E0F10128C
:1000E0001400080EEE1400020304050004140004BA
:1000F0000E1400040810140004080F111400EEED93
:10010000ECEB140E08040004080E00EBECEDEEF32B
:10011000F41411241FBECFEDCDBF20E0A0E6B0E067
:1001200001C01D92A738B207E1F7E2E6F0E085E5ED
:10013000808781E083831482128286831182ADE6F8
:10014000B0E08EEF15968C9315978DEF17968C93E4
:100150008BE0818788E58287612C712C88248A94C2
:10016000C3D0DBC24DCF1BBC19BC18BC0895189579
:1001700025B7277E25BF29B7226029BF21E022BFEE
:10018000019728F020E188952150E9F7F9CF0895EB
:1001900088EE93E0EDCF8CE287B986EC86B9369A8B
:1001A0003699FECF8FEF809360000895369A369986
:1001B000FECF95B18091600089270895CF93C72D18
:1001C00081E0870D8F73782E662D90E098D26FEFC7
:1001D0008C2F90E0CF9193C2FF920F931F93CF93F8
:1001E000DF93F82E0CE610E0C5E7D0E081E0F812CE
:1001F00005C0F8016081CE0182D204C0CE0177D261
:10020000F8018083015011092196CF37D10571F78C
:10021000DF91CF911F910F91FF900895CFDF81E083
:10022000DBCF811101C09FCF815090E0FC01E45BE6
:10023000FF4FE491EBBDFC01E05AFF4FE491E9BDB3
:10024000FC01EC58FF4F849188BD08950F931F93D4
:10025000CF93C82F8B01CC2359F085E0E2DFC80192
:1002600087DF81DFC80184DFC80182DFC150F3CF9F
:10027000CF911F910F910895EF92FF920F931F93CB
:10028000CF93C8E0E82EF12C062F10E084E1C9DFFF
:10029000C7016EDF68DFC8016BDFC150B9F7CF91CE
:1002A0001F910F91FF90EF9008951F93CF93DF93CD
:1002B0008FEA87B986EC86B91092600010E1C0E041
:1002C000D0E085E090E054DF71DFC80FD11D115000
:1002D000C1F7CE0124E0969587952A95E1F7DF9145
:1002E000CF911F91089518958FE384BBB99AB89A5E
:1002F000BC9A81E08ABD83BF9AB590629ABD9AB5D7
:1003000090689ABD9FEF9DBD80BF80E68CBD97B37E
:1003100028B3892F90E0809590958B7F822B88BBA6
:10032000C298AA9A8BB780628BBF8AB785608ABF52
:1003300085B7806285BF789487E790E0D8D185350E
:1003400011F06CDF11C0712C872D90E0D0D1682E98
:100350008F3F19F080E040DF07C0872D91E0970DB7
:10036000792E803488F3F6CF80916B001091650070
:1003700000916600C0916300CC2319F000E010E00A
:1003800088E18F5F90E040E050E068E870E088230B
:1003900079F09B012F5F3F4FF9013197E491EE23F4
:1003A00019F0922F961BF6CF8150AB01B901EFCF18
:1003B000892F612F70E0A92FB0E0E82FF0E0002333
:1003C00021F09D012E1B3F0B05C09F0121503109DB
:1003D000260F371F3197E40FF51FF4902A583F4F2F
:1003E000F901F082815049F7910F90936100112338
:1003F00071F0002329F0292F30E02150310902C08B
:1004000020E030E0F901EA58FF4F81E0808387E087
:10041000890F282F2150E22FE91BF0E0E55FFE4F06
:10042000E491A22FB0E0AA58BF4FEC932913F2CF6A
:10043000E82FF0E0EB58FF4F21E04091760030814B
:10044000431320E0821B282F80938600862D853F52
:1004500078F5382D333060F48F5F682E891708F0F7
:10046000612C809187008F5F8F718093870020C0FF
:10047000109287003730B0F430916800332311F0C8
:10048000CC2331F08F5F682E891790F0612C10C05B
:100490006916E1F3662019F08150682E09C02150D9
:1004A000622E06C0C111F2CF80916400882371F3DF
:1004B000812C84DE70DEC62DC53F28F4D0E0CA58FA
:1004C000DF4FC881DC2F10E000E0EE24E394809140
:1004D0008700803190F15CDE10928700C3E6D0E0A7
:1004E000C12CD12C81E08C0DFFEFCF1ADF0A98814F
:1004F0009F3F31F4219688E0C816D10499F718C0BF
:100500006DE570E0A3DEF601E359FF4F608088815E
:100510008E25888383DE6FE070E080E297DE88813D
:100520008E2588837BDE34DE80916300882311F37F
:10053000612CC0917600DC2F8EC0CE3E19F463E4AE
:1005400081E204C0CD3E21F468E284E195DE83C0FF
:10055000CC3E11F469E203C0CB3E19F462E581E0C0
:10056000F5CFC33F41F484E15CDE8AE090E000DE39
:1005700088E057DE3DC0C43F59F584E690E0F8DDE1
:100580000ADE14DE90E0292F30E0F901E25EFF4F31
:10059000E491E81710F49E5FF6CFF901E15EFF4F9A
:1005A000F4906DE770E08F2D8295869587704EDE12
:1005B0008EEE92E0DDDD65E070E081E047DE85E60D
:1005C00094E0D6DD6DE770E08F2D8F713FDE0FC0B8
:1005D000CE3F81F4612CF12CF0926B001FDE6AEFAC
:1005E00070E081E033DEF39498E1F912F5CFD0DDCD
:1005F000CFDD31C0CD3F91F4612C8FEF80936C0043
:100600000DDE85E00EDEC4DDC3DD84E10ADE4DDEF5
:1006100080936C0003DEBCDDBBDDF9CF8D2F01DEE6
:1006200044DE20916C00821738F00F5F093078F0BB
:10063000D33068F0D1500AC090E030E02250310948
:10064000821793071CF4DC1708F4DF5F00E0A3DDDA
:1006500084EF91E08DDD10928700A8DD803990F461
:100660001F5F183008F433CFD53120F010E0DAE006
:10067000CAE02DCFD23040F08D2F86958695D69545
:10068000D80FCD2F10E023CF6EDD85B7877E806138
:1006900085BFF89485B7846885BF8B7F85BF85B794
:1006A000806285BF889585B78F7D85BFEACF11248D
:1006B000882009F01895F89416B855DDB998B898BF
:1006C000BC9894E4B2990FC0839485B7877E80610B
:1006D00085BF91BD85B7846885BF8B7F85BF7894C2
:1006E0008895F894EFCF8FED8DBF1FBEFDDDE199AA
:1006F000FECF1FBA8EBBE09A99278DB30895262F9F
:10070000E199FECF1CBA1FBA8EBB2DBB0FB6F89471
:0E071000E29AE19A0FBE01960895F894FFCF89
:00000001FF
