:100000007BC0A3C0A2C0A1C0A0C0A4C09EC09DC010
:100010009CC09BC09AC099C098C097C096C07445B8
:1000200079467D47824887498B60906194629963E5
:100030009D64A265A766AB67B068B469B980BE81EC
:10004000C282C783CB84D084D484FF210000000007
:1000500000000000000000000000000000000000A0
:100060000000000000000000000000000000000090
:100070002167B1FF030405070A0E1319212B36432C
:1000800053657990AAC6E6FFFFFFFFFFFFFFFFFF62
:10009000FFFFFFFFFFFFFFFFFFFFFF00000000006B
:1000A0000000000000000000000000000000000050
:1000B00008121C2834414E5C6B7C8FA3B8CFE6FF3E
:1000C000FFFFFF0028000628000617280006111C65
:1000D0002800060E171F2800060C131A21280014EA
:1000E00028EA00EAF406142800EA060C131D28008A
:1000F00006132000F4EA280011241FBECFE5D2E049
:10010000DEBFCDBF20E0A0E6B0E001C01D92A23866
:10011000B207E1F7E1E6F0E085E5808781E08383DF
:100120001482128286831182ACE6B0E08EEF1596BF
:100130008C9315978DEF17968C9388E081878FE4C9
:100140008287612C712C9FD0ABC25ACF1BBC19BCCB
:1001500018BC0895189525B7277E25BF29B72260BA
:1001600029BF21E022BF019728F020E18895215086
:10017000E9F7F9CF089588EE93E0EDCF81EA87B9EA
:1001800086EC86B9369A0895369A3699FECF85B1AF
:100190000895CF93C72D81E0870D8F73782E662D3C
:1001A00090E070D26FEF8C2F90E0CF916BC2FF92F6
:1001B0000F931F93CF93DF93F82E0BE610E0C5E764
:1001C000D0E081E0F81205C0F8016081CE015AD27A
:1001D00004C0CE014FD2F80180830150110921964D
:1001E000CF37D10571F7DF91CF911F910F91FF901C
:1001F0000895CFDF81E0DBCF811101C0A7CF81500F
:1002000090E0FC01E45BFF4FE491EBBDFC01EC5896
:10021000FF4FE491E9BDFC01E456FF4F849188BD96
:1002200008950F931F93CF93C82F8B01CC2359F0C0
:100230008AE0E2DFC8018FDF89DFC8018CDFC801F7
:100240008ADFC150F3CFCF911F910F9108951F9373
:10025000CF93DF938FEA87B986EC86B910E1C0E0CF
:10026000D0E085E090E077DF8FDFC80FD11D11501F
:10027000C1F7CE0124E0969587952A95E1F7DF91A5
:10028000CF911F9108951F92CDB7DEB783EA87B94A
:1002900086EC86B93699FECF369A3699FECFE5B010
:1002A0008FE384BBBB9AC39AB99AB89ABC9A81E08F
:1002B0008ABD83BF9AB590629ABD9AB590689ABD7F
:1002C0009FEF9DBD80BF80E68CBD97B328B3892F7B
:1002D00090E0809590958B7F822B88BB85B780625C
:1002E00085BF789487E790E0C5D1853511F081DF2F
:1002F00011C0712C872D90E0BDD1682E8F3F19F071
:1003000080E055DF07C0872D31E0370D732E803434
:1003100088F3F6CF80916A0000916400F090650048
:1003200010916200112319F0F12C00E089E08F5F39
:1003300090E040E050E064EC70E0882379F09B01AD
:100340002F5F3F4FF9013197E491EE2319F0922F7F
:10035000961BF6CF8150AB01B901EFCF892F602FEB
:1003600070E0A92FB0E0E82FF0E0FF2021F09D0120
:100370002E1B3F0B05C09F0121503109260F371F4F
:100380003197E40FF51FD4902B583F4FF901D082DD
:10039000815049F7900F90936000002371F0FF2087
:1003A00029F0292F30E02150310902C020E030E04F
:1003B000F901EB58FF4F81E0808383E0890F282FFC
:1003C0002150E22FE91BF0E0EC50FF4FE491A22F07
:1003D000B0E0AB58BF4FEC932913F2CFE82FF0E019
:1003E000EC58FF4F21E0409175003081431320E02D
:1003F000821B282F80938100862D853F80F5F8EFA2
:10040000FE1560F48F5F682E891708F0612C8091CB
:1004100082008F5F8F718093820021C032ED109235
:1004200082003E15B0F430916700332311F01123A0
:1004300031F08F5F682E891790F0612C10C069161B
:10044000E1F3662019F08150682E09C02150622E18
:1004500006C01111F2CF80916300882371F399DEF9
:100460008DDED62C84EF861538F0862D90E08B58E3
:100470009F4FFC01D080CD2C10E000E0EE24E394EF
:10048000809182008031C8F176DE1092820092E67F
:10049000A92E90E0B92EC12CD12C81E08C0DFFEF5C
:1004A000CF1ADF0AF50190819F3F41F4FFEFAF1AA9
:1004B000BF0A38E0C316D10481F71AC06DE570E0B9
:1004C000B0DEF601E459FF4F6080F50180818E2592
:1004D00080838FDE6FE070E080E2A3DEF501808133
:1004E0008E25808386DE47DE809162008823F1F2CC
:1004F000612CD0907500CD2C8DC0FAEEDF1216C0A5
:1005000021E0822F298378DE88E290E024DE2981B1
:100510002F5F2932B1F788E2F82E8F2D6DDE88E249
:1005200090E019DEFA94F110F8CF74C034EFD312D2
:100530002BC084E690E00FDE21DE26DE90E0292F3E
:1005400030E0F901E25EFF4FE491E81710F49E5F9E
:10055000F6CFF901E15EFF4FF4906DE770E08F2D6B
:100560008295869587705DDE8EEE92E0F4DD65E023
:1005700070E081E056DE85E694E0EDDD6DE770E049
:100580008F2D8F714EDE10C08EEFD81210C0612CEF
:10059000F12CF0926A002DDE6AEF70E081E041DE1E
:1005A000F39499E0F912F5CFE6DDE5DD33C0EDEF28
:1005B000DE1212C0612C8FEF80936B001ADE8AE08E
:1005C0001BDED9DDD8DD88E217DE41DE80936B00CB
:1005D00010DED1DDD0DDF9CF8C2D0EDE38DE20919E
:1005E0006B00821740F00F5F093080F0F5E0FC15DA
:1005F00068F4CA940AC090E030E0225031098217B2
:1006000093071CF4CD1408F4C39400E0B7DD84EF25
:1006100091E0A1DD10928200B7DD8238B0F41F5F57
:10062000183008F42DCF38E23C1530F410E024E106
:10063000C22E34E1D32E24CF81E08C1540F48C2DD2
:1006400086958695C694C80EDC2C10E019CF7EDD09
:1006500085B7877E806185BFF89485B7846885BF3C
:100660008B7F85BF85B7806285BF889585B78F7D75
:1006700085BFEACFE199FECF9FBB8EBBE09A992759
:100680008DB30895262FE199FECF1CBA9FBB8EBB78
:100690002DBB0FB6F894E29AE19A0FBE0196089529
:0406A000F894FFCFFC
:00000001FF
