:100000007FC0A2C0A1C0A0C09FC0ACC09DC09CC00A
:100010009BC09AC099C098C097C096C095C07445BF
:1000200079467D47824887498B60906194629963E5
:100030009D64A265A766AB67B068B469B980BE81EC
:10004000C282C783CB84D084D484FF2103030405F8
:1000500006080A0C0F13171C21282F373F49545F3D
:100060006C7A8999ABBED2E8FFFFFFFFFFFFFFFF6D
:10007000FFFFFFFFFFFFFFFFFFFFFFFFFFFFFFFF90
:10008000FFFFFFFFFFFFFFFFFFFFFF00000000007B
:100090000000000000000000000000000000000060
:1000A0000000000000000000000205080B0E121600
:1000B0001A1E22272C31363B41474D545B62697131
:1000C000798189929BA4AEB8C2CDD8FF40000B4085
:1000D000000B2340000B1A2E40000B172432400067
:1000E0000B141F293540001D40F200F3F40B1D4096
:1000F0000009121D2E40000B1D3200F3F4F24000E7
:1001000011241FBECFEDCDBF20E0A0E6B0E001C0BE
:100110001D92A338B207E1F7E1E6F0E085E58087BC
:1001200081E08383148212828683118285E0818735
:100130008FE48287612CECE6F0E08DEF87838EEF11
:100140008583712CB4D0A8C25BCF815090E0FC01B4
:10015000E45BFF4FE491E9BDFC01E457FF4F84915C
:1001600088BD0895189525B7277E25BF29B7226039
:1001700029BF21E022BF019728F020E18895215076
:10018000E9F7F9CF089588EE93E0EDCF81EA87B9DA
:1001900086EC86B9369A0895369A3699FECF85B19F
:1001A0000895CF93C72D81E0870D8F73782E662D2C
:1001B00090E064D26FEF8C2F90E0CF915FC2FF92FE
:1001C0000F931F93CF93DF93F82E0BE610E0C5E754
:1001D000D0E081E0F81205C0F8016081CE014ED276
:1001E00004C0CE0143D2F801808301501109219649
:1001F000CF37D10571F7DF91CF911F910F91FF900C
:100200000895CFDF81E0DBCF811103C019BC18BC9A
:1002100008959BCF0F931F93CF93C82F8B01CC23AF
:1002200061F081E192DFC8019EDF19BC18BCC801F2
:100230009ADFC80198DFC150F2CFCF911F910F9183
:100240000895EF92FF920F931F93CF93C8E0E82E8B
:10025000F12C062F10E080E478DFC70184DF19BCA1
:1002600018BCC80180DFC150B1F7CF911F910F9129
:10027000FF90EF9008951F93CF93DF938FEA87B994
:1002800086EC86B910E1C0E0D0E085E090E06BDF5D
:1002900083DFC80FD11D1150C1F7CE0124E0969520
:1002A00087952A95E1F7DF91CF911F91089583EA11
:1002B00087B986EC86B93699FECF369A3699FECF45
:1002C000C5B18FE384BBBB9AC39AB99AB89A81E04F
:1002D0008ABD83BF8AB580628ABD8AB580688ABDBF
:1002E00097B328B3892F90E0809590958B7F822BD0
:1002F00088BB85B7806285BF789487E790E0B6D1E8
:10030000853511F07EDF11C0712C872D90E0AED1C4
:10031000682E8F3F19F080E052DF07C0872D91E0F3
:10032000970D792E803488F3F6CF80916A00009182
:100330006400F090650010916200112319F0F12C17
:1003400000E089E08F5F90E040E050E06CEC70E00E
:10035000882379F09B012F5F3F4FF9013197E4919A
:10036000EE2319F0922F961BF6CF8150AB01B90105
:10037000EFCF892F602F70E0A92FB0E0E82FF0E0D9
:10038000FF2021F09D012E1B3F0B05C09F01215036
:100390003109260F371F3197E40FF51FE4902B58D2
:1003A0003F4FF901E082815049F7900F9093600030
:1003B000002371F0FF2029F0292F30E0215031096E
:1003C00002C020E030E0F901EB58FF4F81E080836C
:1003D00084E0890F282F2150E22FE91BF0E0E5503F
:1003E000FF4FE491A22FB0E0AB58BF4FEC9329131D
:1003F000F2CFE82FF0E0EC58FF4F21E0409175007C
:100400003081431320E0821B282F80938200862DA9
:10041000853F70F5C93F60F08F5F682E891708F03F
:10042000612C809183008F5F8F718093830020C047
:1004300010928300C33DB0F030916700332311F078
:10044000112331F08F5F682E891790F0612C10C056
:100450006916E1F3662019F08150682E09C0215019
:10046000622E06C01111F2CF80916300882371F3D0
:1004700098DE8CDEC62DC53F28F4D0E0CB58DF4F88
:10048000C881DC2F10E000E0EE24E394809183002B
:10049000803190F178DE10928300C2E6D0E0C12C6A
:1004A000D12C81E08C0DFFEFCF1ADF0A98819F3F9E
:1004B00031F4219688E0C816D10499F718C06DE58B
:1004C00070E0A8DEF601E459FF4F608088818E2538
:1004D000888397DE6FE070E080E29CDE88818E2565
:1004E00088838FDE50DE80916200882311F3612CB7
:1004F000C0917500DC2F8DC0C23F39F468E284E101
:10050000A0DE60E588E29DDE84C0C33F91F484E014
:10051000F82E80E41ADE85E090E025DE8DE115DE20
:1005200081E490E020DEFA94F110F3CF80ED92E0C8
:100530006FC0C43F59F584E690E015DE27DE2CDE5F
:1005400090E0292F30E0F901E25EFF4FE491E817D7
:1005500010F49E5FF6CFF901E15EFF4FF4906DE776
:1005600070E08F2D82958695877054DE8EEE92E036
:10057000FADD65E070E081E04DDE85E694E0F3DDD4
:100580006DE770E08F2D8F7145DE0FC0CE3F81F497
:10059000612CF12CF0926A0034DE6AEF70E081E0A9
:1005A00039DEF39499E0F912F5CFEDDDECDD31C0E1
:1005B000CD3F91F4612C8FEF80936B0022DE80E1C0
:1005C000C4DDE1DDE0DD80E4C0DD55DE80936B005D
:1005D00018DED9DDD8DDF9CF8D2F16DE4CDE209167
:1005E0006B00821738F00F5F093078F0D93068F06F
:1005F000D1500AC090E030E02250310982179307B1
:100600001CF4DC1708F4DF5F00E0C0DD84EF91E04C
:10061000AADD10928300C0DD823890F41F5F18308D
:1006200008F434CFD13420F010E0D0E2C0E22ECF75
:10063000D23040F08D2F86958695D695D80FCD2F48
:1006400010E024CF19BC18BC85B7877E806185BFB8
:10065000F89485B7846885BF8B7F85BF85B7806236
:1006600085BF889585B78F7D85BFE9CFE199FECF9E
:100670001FBA8EBBE09A99278DB30895262FE19972
:10068000FECF1CBA1FBA8EBB2DBB0FB6F894E29AF0
:0C069000E19A0FBE01960895F894FFCF88
:00000001FF
