:1000000085C09DC09CC09BC09AC099C098C097C035
:1000100096C095C094C093C092C091C090C000009B
:1000200000000000000000000000000000000000D0
:10003000000000000000000000000104070A0D108D
:1000400014181C2024292E33383D434950565D6432
:100050006B737B838B949DA6B0BAC4CFDAFF030386
:10006000040507080A0D1014191E242A323B444EB9
:100070005A67748394A5B8CCE2F9FFFFFFFFFFFF36
:10008000FFFFFFFFFFFFFFFFFFFFFFFFFFFFFFFF80
:10009000FFFFFFFFFFFFFFFFFFFFFFFFFF0040002D
:1000A0000000000000000A400000000000000A25D7
:1000B0004000000000000A1C2E40000000000A174B
:1000C0002532400000000A141F2A354000000A13A0
:1000D0001C252E3640000A11192128303840FAFE1E
:1000E000F840744578467D47824886498B60906128
:1000F000956299639E64A365A866AC67B168B669AA
:10010000BB80BF81C482C983CD84FF2111241FBE5F
:10011000CFEDCDBF10E0A0E6B0E0E8E7F7E002C029
:1001200005900D92A237B107D9F710E0A2E7B0E031
:1001300001C01D92AA37B107E1F79DD11BC360CF63
:10014000815090E0FC01E25AFF4F2491FC01E25EF5
:10015000FF4F849188BD29BD089520ED37E003C08D
:10016000F9013197F1F70197D8F7089588EE93E0F8
:10017000F4CF369A3699FECF85B10895CF93C091CA
:1001800072008C2F8F5F8F73809372006091730069
:1001900090E0E2D26FEF8C2F90E0CF91DDC2EEDFE6
:1001A00065E58FE790E0D8D2609170008EE790E02F
:1001B000D3D2609175008DE790E0CED260916E0051
:1001C0008CE790E0C9D260916D008BE790E0C4D2DB
:1001D000609174008AE790E0BFD260916F0089E778
:1001E00090E0BAD26091760088E790E0B5C2CF93F4
:1001F0008FE790E0A9D2853511F0CF91D0CF109242
:1002000072000BC08C2F90E09FD28F3F19F080932B
:10021000730007C0CF5FC0937200C0917200C034FA
:1002200088F38EE790E090D2809370008DE790E0A5
:100230008BD2809375008CE790E086D280936E001D
:100240008BE790E081D280936D008AE790E07CD2CA
:100250008093740089E790E077D280936F0088E7FD
:1002600090E072D280937600CF9108950F931F9300
:10027000CF93DF93C0917000D0E083E0CC0FDD1FFF
:100280008A95E1F7C256DF4F40E001C0482F483061
:1002900048F04093780080916F0081110CC000E617
:1002A00010E00EC0FE01E40FF11DE491842F8F5F7A
:1002B000E111ECCFEECF81E08093600001E610E029
:1002C00050E0BE01C80134D28091780044E050E093
:1002D0006EED70E09801280F311DC90129D22091DF
:1002E0007800822F8C5F809379008091760088233C
:1002F000E1F0822F90E0FE01E80FF91F30E0A0E668
:10030000B0E004C0319744914D933F5F3213FACF70
:10031000FC01E05AFF4F30916F00332311F031E0C0
:100320003083822F8D5F8093790080916F008823C6
:1003300041F0809179008F5F809379002F5F209347
:100340007800DF91CF911F910F910895811103C023
:1003500018BC19BC0895F4CECF93DF93D82F8091A9
:100360007700CD2FC81B91E009F490E0C595C595A5
:10037000C92BC80FC09377008C2FE8DF80E190E095
:10038000ECDEDC13ECCFDF91CF910895FF920F9359
:100390001F93CF93DF93F82EEB018B01000F111FFA
:1003A000000F111F09C080E1CBDECE01D6DE18BCE4
:1003B00019BCC801D2DEFA94F110F5CFDF91CF91CC
:1003C0001F910F91FF9008951F93CF93DF931F927A
:1003D000CDB7DD27182F80E46983B2DE812F90E04E
:1003E000BCDE18BC19BC6981862F90E00F90DF91AC
:1003F000CF911F91B2CE1F93CF93DF93EC01862F45
:100400006EE370E0C3DF888191E089278883C7DECF
:1004100010E288E095DE84E190E09FDE18BC19BC14
:1004200084E190E09ADE1150A1F7888191E089275C
:100430008883B5DEDF91CF911F9198CE1F93CF9324
:10044000DF938FEA87B986EC86B993DE10E1C0E0CE
:10045000D0E08FDEC80FD11D85E090E07EDE115028
:10046000C1F7CE0124E0969587952A95E1F7DF91B3
:10047000CF911F910895A39A83EA87B986EC86B934
:100480003699FECF369A3699FECFC5B1B99AB89A49
:1004900081EA8ABD81E083BFAADEE8DE8091740034
:1004A00081112FC0CF3B80F080917A008F5F8F71D8
:1004B00080937A00809173008F5F80937300909196
:1004C00078008917F0F01BC080916E0010927A00BE
:1004D000882389F0CF3578F080917300909178006F
:1004E000891301C00CC0811102C080917900815034
:1004F0008093730006C080917500811102C0109234
:1005000073003CDEBB9AC39AA29A81EA87B986EC53
:1005100086B9369AD0917300ED2FF0E0E05AFF4F84
:10052000C08180917400882319F010927A0001C074
:10053000DC2F10E0B12C6DEFF62E7CEFE72EE1EA18
:10054000DE2EF6ECCF2E0FEF80917A00803138F15D
:100550000DDE10927A00F092730061E084E790E083
:100560004ADF1092730062E08FE690E044DF63E0C0
:1005700086E790E040DF64E085E790E03CDF65E0FF
:100580008EE690E038DFE092730066E084E790E06A
:1005900032DF10927300D0916000CD2F9FC0D83F02
:1005A00079F458E0A52E68E284E10EDFAA94D9F729
:1005B00048E0A42E60E588E207DFAA94D9F78EC050
:1005C000DA3F91F434E0A32E08BD19BC85E090E039
:1005D000C4DD18BC09BD81E490E0BFDDAA94A1F799
:1005E00080ED92E0BADD7AC0DE3F39F5C2DD90E001
:1005F00001C09E5F292F30E0F901EE51FF4FE491D9
:10060000E817B8F3F901ED51FF4FA4906EE370E0E5
:100610008A2D829586958770B9DE84EF91E09DDD05
:1006200065E070E081E0B2DE8EEE92E096DD6EE392
:1006300070E08A2D8F71AADE12C0DD3F99F410920E
:10064000730010927400A12CA0927000A8DD66EADD
:1006500070E081E09BDEA39488E0A812F5CF86DDF0
:1006600085DD3CC0DC3FA9F4109273001092740049
:100670008FEF80936D0093DD80E16EDE77DD76DDB8
:1006800080E46ADEDBDE80936D0089DD6FDD6EDD88
:10069000F9CF8C2F61DED2DE20916D00821740F001
:1006A000B3948FE08B1580F4C93070F0C1500BC04B
:1006B000482F50E030E022503109421753071CF414
:1006C000CD1708F4CF5FB12C8C2F46DEA29AD7B895
:1006D000C6B884EF91E041DD10927A00349B34CFAC
:1006E00085B1823810F51F5F183000F1C134B0F4C5
:1006F000C23030F08C2F86958695C695C80F0FC0F6
:1007000018BC19BC85B7877E806185BF85B78062BC
:1007100085BF889585B78F7D85BF01C0C0E28C2FCE
:100720001BDE8AEF90E019DDDC2F10E0369A0CCF4B
:10073000E62FF72FA82FB92F03C0C89531960D9239
:1007400041505040D0F70895E199FECF1FBA8EBBBB
:10075000E09A99278DB30895262FE199FECF1CBA10
:100760001FBA8EBB2DBB0FB6F894E29AE19A0FBE6A
:0807700001960895F894FFCFF3
:10077800010203040506070809FAFEF8404F0101C3
:0207880005006A
:00000001FF
