:100000002EC046C045C044C043C042C041C040C0ED
:100010003FC03EC0040404040405050505060607A8
:100020000708090A0B0C0D0E1011131517191B1DCB
:10003000202225282B2F32363A3E42474B50565B22
:1000400061676D737A81888F979FA7B0B8C2CBD54F
:10005000DFE9F4FF7989939EA3A8ADB2B8FF11241C
:100060001FBECFE9CDBF10E0A0E6B0E0E0EFF3E0C7
:1000700002C005900D92A836B107D9F710E0A8E6A6
:10008000B0E001C01D92AA36B107E1F778D0AEC149
:10009000B7CF28ED3EE003C0F9013197F1F7815069
:1000A000D8F708958AEFF5CF369A3699FECF85B105
:1000B00008958DE7EECF6FEF8091690090E088D1D1
:1000C000809169008F5F809369006FEF90E080D12D
:1000D000809169008F5F8F718093690060916D00DE
:1000E00090E076D18091690090E060916C0001967B
:1000F0006FC11F93CF93DF931092690013C0C12F7C
:10010000D0E0CE015DD18F3F51F080936800CE01E9
:10011000019656D18F3F51F08093660007C01E5F55
:100120001093690010916900103248F3DF91CF916C
:100130001F91089591E29FBD811102C019BC0895DD
:10014000E82FF0E0ED5EFF4FE491E9BD08951F93C5
:10015000CF93DF93D82FC62F11E20BC080E1EADFE7
:100160008C2F97DF1FBD19BC8C2F93DF8C2F91DF55
:10017000D150D111F3CFDF91CF911F910895EF921C
:10018000FF920F931F93CF93DF93B99AC1E0C3BF40
:10019000B0DF80916E0081111CC080916F008F5F75
:1001A0008F7180936F0080916A00863030F4809365
:1001B0006D008FEF80936A0007C080916D008F5FA4
:1001C000863020F480936D00D0E00FC010926D0057
:1001D000FBCF10926F00C0936C00C0936B008FEF49
:1001E00080936A0010926D00DBEF10926E0063DF67
:1001F000A29A81E687B986EC86B9369A10E001E2C8
:10020000FF24FA94E0916D00F0E0E05AFF4FC081C6
:10021000DB3F89F481E08EDF81E080936A0049DF73
:100220008091680080936D008091660080936C00DF
:1002300042DFD0E08DC0CD3F09F04BC080916C0013
:1002400079DF80916F00813039F480916D00809367
:100250006A00F0926B0007C0823029F480916D0033
:100260008E5F80936A0025DFF0926A0080916F00B4
:10027000813011F480936B0010926F0080916B00BD
:100280008130F9F408C056DF89E003DF80916C000B
:100290008F5F80936C0080916C008034A0F3F092AB
:1002A0006B000FBD19BC82E0F4DE80916C0042DF70
:1002B0004FC040DF89E0EDDE80916C00815080937B
:1002C0006C0080916C008230A0F781E080936B001D
:1002D0003FC0CC3F71F480916C002CDFEADE80914E
:1002E0006F008230A8F580916D00815080936A0084
:1002F0002FC0CE3F11F480E416C0C73F69F488E0F8
:10030000E82E80E417DF88E0C4DE0FBD19BC80E171
:10031000C0DEEA94B1F71CC0C83F39F480E40ADFBC
:1003200084E0B7DE80E206DF12C0C93F89F4C1DE97
:10033000BBDE982F80E001C08F5FE82FF0E0EC5A21
:10034000FF4FE491E917C0F36FE101DFABDEAADEF6
:1003500010926F00349B56CF85B1893710F51F5F1F
:10036000183000F1CC3F01F590916C00923040F0D4
:10037000892F869596959695890F80936C000DC070
:100380000FBD19BC85B7877E806185BF85B7806248
:1003900085BF889585B78F7D85BF80916C00CADE4B
:1003A00081DE10E0369A2ECF80E280936C0080E0F0
:1003B00090E0DF91CF911F910F91FF90EF90089502
:1003C000E199FECF1FBA8EBBE09A99278DB30895AD
:1003D000262FE199FECF1CBA1FBA8EBB2DBB0FB6DC
:1003E000F894E29AE19A0FBE01960895F894FFCF2F
:0803F000FDFCFEF9F8F7010025
:00000001FF
