:100000004EC066C065C064C063C062C061C060C0ED
:100010005FC05EC004040404040404040404050571
:10002000050505050506060606070707070808086B
:1000300009090A0A0B0B0C0C0D0D0E0F0F101112F3
:1000400013131415161718191A1B1D1E1F2022230F
:10005000242627292A2C2E2F31333537393B3D3F93
:10006000414345484A4C4F515456595C5F6264675E
:100070006A6D7174777A7E8185888C9094989B9F45
:10008000A4A8ACB0B5B9BDC2C7CBD0D5DADFE4E91E
:10009000EFF4F9FF8B9AA4ADB2B7BCC1C6FF11242F
:1000A0001FBECFE9CDBF10E0A0E6B0E0ECEDF3E07D
:1000B00002C005900D92AC36B107D9F710E0ACE65E
:1000C000B0E001C01D92AE36B107E1F76CD084C13B
:1000D00097CFE82FF0E0ED5EFF4FE491E9BD089582
:1000E00026EB33E003C0F9013197F1F70197D8F718
:1000F00008958CE391E00197F1F7089528ED3EE033
:1001000003C0F9013197F1F78150D8F708958AEFCC
:10011000F5CF369A3699FECF85B1089583E5EECFB7
:1001200091E29FBD811102C019BC0895D2CF1F93E7
:10013000CF93DF93D82FC62F11E20BC080E2F0DF00
:100140008C2FDCDF1FBD19BC8C2FD8DF8C2FD6DFA6
:10015000D150D111F3CFDF91CF911F910895CF935B
:10016000DF93C82FD62F80E8DBDFCC2321F08C2F44
:1001700090E0B6DF01C0BDDF81E28FBD19BC8D2FDD
:1001800090E0DF91CF91ACCF1F93CF93DF93D82F27
:10019000162FC0E2612F8D2FE2DFC150D9F7DF911A
:1001A000CF911F910895B99A81E083BF9091720019
:1001B000911118C0809173008F5F8F7180937300CD
:1001C00080916E008A3030F4809371008FEF8093BD
:1001D0006E0013C0809171008F5F809371008A3030
:1001E00060F009C0109273008093700080936F00DC
:1001F0008FEF80936E001092710010927200A29A9D
:1002000081E687B986EC86B9369AD0E0FF24FA9465
:1002100011E280E2E82EE0917100F0E0E05AFF4F39
:10022000C081CD3F09F042C08091700079DF80919C
:100230007300813039F48091710080936E00F092E8
:100240006F0007C0823029F4809171008E5F809327
:100250006E0064DFF0926E0080917300813011F4C3
:1002600080936F00109273008091700059DF85E0D9
:1002700045DF80916F009091700018161CF497FF75
:1002800005C008C0882311F0923050F0890F809388
:100290007000EACF813021F41FBD19BC82E02EDF4F
:1002A00080916F00819580936F0063C0CC3F39F4DB
:1002B0008091700035DF32DF10926E005AC0CE3F61
:1002C00039F480E82DDF2ADF81E080936E0051C091
:1002D000C63F61F408E080E823DF88E00FDF1FBD40
:1002E00019BC80E10BDF0150B1F743C0C83F61F496
:1002F00004E080E815DF82E001DF80E411DF8FE0B9
:10030000FDDE0150B1F734C0C23F89F480E808DF58
:1003100081E0F4DE1FBD19BC8EE3F0DE80E800DF73
:1003200081E0ECDE1FBD19BC8BEBE8DE22C0C13FD3
:1003300019F46FE481E008C0C03F11F469E203C022
:10034000CF3E21F46FE080E00ADF13C0CA3F89F49A
:10035000E5DEDFDE982F80E001C08F5FE82FF0E060
:10036000EC56FF4FE491E917C0F36FE1E0DECFDE1A
:10037000CEDE10927300349B4ECF85B18B3848F59A
:10038000DF5FD83038F1CC3F31F081E080937100ED
:10039000E09270001DC090917000923040F0892F63
:1003A000869596959695890F809370000EC01FBD17
:1003B00019BC379885B7877E806185BF85B7806215
:1003C00085BF889585B78F7D85BF80917000A8DE39
:0C03D0009EDED0E0369A1FCFF894FFCFDD
:0C03DC00FDFCFEFAF6F8F2F1F0EF010073
:00000001FF
